:020000040000fa
:10000000f03f0020b51700006b1c0000531e0000dd
:1000100000000000000000000000000000000000e0
:100020000000000000000000000000005b1900005c
:1000300000000000000000005b1900005b190000d8
:100040005b1900005b1900005b190000951c0000a3
:100050006d1700005b1900005b1900005b190000c0
:100060005b1900005b1900005b1900000000000034
:10007000000000005b1900005b1900005d1d00001e
:100080005b1900005b1900005b1900000000000014
:10009000000000005b1900005b1900005b19000004
:0400a0005b190000e8
:020000040000fa
:1000a400f8b5c046f8bc08bc9e4670474d17000022
:1000b400f8b5c046f8bc08bc9e467047251700003a
:020000040000fa
:1000c400f0b59db00490029105920393002805d0e9
:1000d40083690693002b01d101f044fa974b029aed
:1000e4009a4263d1049b5b680293029b9b891b0722
:1000f4006ad5029b1b690693002b65d000220aabcc
:100104000f9220325a7610329a76059e3378002b5d
:1001140001d0252b62d1059bf41a0cd02300059a3b
:100124000299049801f08cfb431c00d17de10f9be4
:100134001c1905930f943378002b00d175e101222b
:1001440000230aac5242626006a954327c4f521812
:100154000a93e360a36001361370223731780522d5
:10016400380001f0a5fe751c002839d12168cb06a2
:1001740004d5532306aa9b1820221a700b0704d512
:10018400532306aa9b182b221a7033782a2b2fd0bc
:10019400350000210a20e3682a786e1c303a092ac7
:1001a40000d86ce0002929d0e36027e0654b029a6f
:1001b4009a4202d1049b9b6896e7634b029a9a4247
:1001c40093d1049bdb688fe70299049800f0fcfc50
:1001d400002893d0012040421db0f0bd013695e7c0
:1001e4000123c01b834022682e0013432360b5e71c
:1001f400039a08ca002b3cdbe36003922b782e2b76
:1002040009d16b782a2b42d1039b023504cb002af7
:100214003adb626003934a4e297828360322300081
:1002240001f046fe002806d04023801b834022684c
:10023400013513432360424f297838006b1c062292
:100244002c300593217601f033fe5322237e06a938
:100254005218692b32d042d8582b77d02ad8002b89
:1002640000d1f0e0522106a809180b7001230e9367
:100274005ee05b42e36002230b432360bde743433c
:1002840001219b18350087e701225242c1e7002370
:100294000a201a000135636029786e1c3039092957
:1002a40003d9002bb7d06260b5e74243012352184b
:1002b4003500f1e7632b32d0642bd3d103990a9b29
:1002c40020c90391190602d45b0600d52db21c4f38
:1002d400002d02da2d236d4213700a2655e0702b8f
:1002e40000d1a9e010d86f2bbcd103990a9a20c978
:1002f4000391110602d4520600d5adb2104f0a265e
:100304006f2b3dd108263be0752beed0782ba9d17d
:10031400552306aa9b18782211371a701ae0522125
:10032400039b06ad01cb4919087001210393216198
:1003340000235224137006abe41859e0b0030020e4
:10034400fc1a0000d003002090030020552206a9c7
:1003540052181370039a0a9b20ca03921a0602d4f5
:100364005a0600d5adb20122134202d01f32134304
:100374000a931026002d03d120230a9a9a430a9245
:10038400532306aa9b1800221a700b9b0c93002b74
:1003940003db04220a9991430a91002d05d15322cb
:1003a40006a952181400002b0cd0532306aa9b183c
:1003b4001c003100280000f0fdfa7b5c013c237036
:1003c400ae423ed9082e0ed101220a9b13420ad016
:1003d4000b9b06930e9b0793079a069b934202dca2
:1003e4003023013c2370532306aa9b181b1b0e9336
:1003f400234b09aa00930aa9029b049800f05afc13
:10040400431c12d00e9b22000299049801f018faa2
:10041400431c0ad00a9b06939b0729d4099a0d9b77
:10042400934200da13005a1c24d1029b9b895b0679
:1004340000d5cfe60f98cfe620232268134323602c
:1004440066e70500b5e723611400d1e7292206a970
:10045400012352180498029901f0f2f9431ce4d0e4
:1004640001340d9b099a06939b1a9c42eedbd5e757
:100474000024f6e70f9ad31806920f9345e6c04678
:040484004518000017
:020000040000fa
:10048800f00300201c0000000000000070020020a3
:10049800c0000000000000000c0400200c00000058
:1004a8000000000018040020080000000000000000
:1004b800700100200001000000000000430400203b
:1004c80001000000000000004404002002000000b9
:1004d80000000000400400200300000000000000ad
:1004e8003c04002001000000000000003d04002042
:1004f80001000000000000002004002004000000ab
:10050800000000003e040020010000000000000080
:100518003f04002001000000000000002404002027
:10052800040000000000000028040020040000006f
:1005380000000000900300202000000000000000e0
:10054800b00300202000000000000000d0030020bd
:1005580020000000000000002c040020040000001f
:10056800010000003003002030030020600000007c
:100578000100000000000000b0030020d0030020ac
:1005880090030020000000000000000000000000b0
:100598000000000000000000000000000000000053
:1005a8000000000000000000000000000000000043
:1005b8000000000000000000000000000000000033
:1005c8000000000000000000000000000000000023
:1005d80000000000040000206c0100000100000081
:1005e80043000000000000000000000000000000c0
:1005f80000000000000000000000000000000000f3
:10060800430000000000000000000000000000009f
:1006180000000000000000000000000000000000d2
:10062800430000000000000000000000000000007f
:1006380000000000000000000000000000000000b2
:10064800430000000000000000000000000000005f
:100658000000000000000000000000000000000092
:10066800430000000000000000000000000000003f
:100678000000000000000000000000000000000072
:10068800430000000000000000000000000000001f
:100698000000000000000000000000000000000052
:1006a80043000000000000000000000000000000ff
:1006b8000000000000000000000000000000000032
:1006c8009d1e0000811d000000000000c80a0000f7
:1006d8008d1f00008c1f00008c1f00008c1f000065
:1006e8008c1f00008c1f00008c1f00008c1f000056
:1006f8008c1f00008c1f0000ffffffffffffffffa4
:10070800ffffffffffff000001004153434949007d
:1007180000000000000000000000000000000000d1
:100728000000000000000000000041534349490058
:1007380000000000000000000000000000000000b1
:10074800000000000000000000000000300400204d
:100758000400000000000000340400200400000031
:10076800000000000000002004000000000000005d
:100778003804002004000000000000000000000011
:1007880000000000222222222222222222222222c9
:020000040000fa
:10079800f7b58a8905000c0013075dd44b68002b58
:1007a80004dc0b6c002b01dc0020febde76a002f87
:1007b800fad000232e682b6080235b011a4034d0c6
:1007c800606da3895b0706d56368c01a636b002b4d
:1007d80001d0236cc01a0200216a00232800e76aae
:1007e800b847a189431c06d12b681d2b31d82c4a48
:1007f800da40d3072dd50023636023692360cb0437
:1008080005d5431c02d12b68002b00d16065616bb4
:100818002e600029c8d023004433994202d0280012
:1008280000f0d2fc00206063bfe70123216a2800a2
:10083800b847431cc5d12b68002bc2d01d2b01d053
:10084800162b01d12e60afe74023a2891343a38161
:10085800abe740230b43fae70f69002fa4d00b68de
:100868000f60db1b01930023920700d14b69a36043
:10087800019b002b00dc97e7019b3a00216a2800c6
:10088800a66ab047002806dc40230120a28940421e
:100898001343a38189e7019b3f181b1a0193e7e7dc
:0408a80001004020eb
:020000040000fa
:1008ac00002243088b4274d303098b425fd3030aa3
:1008bc008b4244d3030b8b4228d3030c8b420dd3b6
:1008cc00ff22090212ba030c8b4202d31212090244
:1008dc0065d0030b8b4219d300e0090ac30b8b4282
:1008ec0001d3cb03c01a5241830b8b4201d38b0330
:1008fc00c01a5241430b8b4201d34b03c01a5241d5
:10090c00030b8b4201d30b03c01a5241c30a8b4217
:10091c0001d3cb02c01a5241830a8b4201d38b0202
:10092c00c01a5241430a8b4201d34b02c01a5241a6
:10093c00030a8b4201d30b02c01a5241cdd2c30918
:10094c008b4201d3cb01c01a524183098b4201d394
:10095c008b01c01a524143098b4201d34b01c01a7f
:10096c00524103098b4201d30b01c01a5241c308f7
:10097c008b4201d3cb00c01a524183088b4201d366
:10098c008b00c01a524143088b4201d34b00c01a52
:10099c005241411a00d20146524110467047ffe7be
:1009ac0001b5002001f010fb02bdc0460029f7d0b4
:0409bc0076e7704723
:020000040000fa
:1009c00030490b6a304a1a40a1235b0013430b6283
:1009d0000a000823d1680b42fcd02a4b00229a61fe
:1009e0009a8c80218a439a841a001023d1680b4282
:1009f000fcd0264b1a68920e3f2a41d0244b1b682c
:100a00009b059b0d920213431e4a93621023d168eb
:100a10000b42fcd01b4b02229a841a001023d1688f
:100a20000b42fcd01b4b1c4a5a601c4a9a601a00ad
:100a300053785bb2002bfbdb164b194a5a601a0045
:100a400053785bb2002bfbdb124b164a5a601a003c
:100a500053785bb2002bfbdb0e4b134a5a80134ad0
:100a60005a80134a5a80134a5a80134a5a80134aaa
:100a70005a80134b1f225a61da61124a1a62704778
:100a8000203abbe7000800400000ffcf2460800050
:100a900028608000000c00400103210001100000cc
:100aa00002060100000701000241000003400000af
:100ab00004400000074200000d4000001440000008
:080ac0000004004006040100df
:020000040000fa
:100ac8000020202020202020202028282828282016
:100ad800202020202020202020202020202020200e
:100ae8002088101010101010101010101010101076
:100af8001004040404040404040404101010101066
:100b0800101041414141414101010101010101012f
:100b18000101010101010101010101011010101081
:100b28001010424242424242020202020202020201
:100b38000202020202020202020202021010101055
:100b4800200000000000000000000000000000007d
:100b5800000000000000000000000000000000008d
:100b6800000000000000000000000000000000007d
:100b7800000000000000000000000000000000006d
:100b8800000000000000000000000000000000005d
:100b9800000000000000000000000000000000004d
:100ba800000000000000000000000000000000003d
:100bb800000000000000000000000000000000002d
:010bc800002c
:020000040000fa
:020bca00704772
:020000040000fa
:100bcc00364b70b51d6806000c00002d05d0ab69c6
:100bdc00002b02d1280000f0c1fc314b9c420fd1fc
:100bec006c680c23e25e93b219072dd4d90611d48c
:100bfc0009230120336037331343a381404270bd76
:100c0c00284b9c4201d1ac68ebe7274b9c42e8d1c6
:100c1c00ec68e6e75b0713d5616b002908d023006d
:100c2c004433994202d0300000f0ccfa00236363c5
:100c3c002422a3899343a381002363602369236047
:100c4c000823a2891343a3812369002b0bd1a02174
:100c5c008022a389890092000b40934203d021008b
:100c6c00300000f065fa0123a289134011d0002353
:100c7c00a36063695b42a361002023698342bed1f8
:100c8c000c23e25e1306bad540231343a38101382b
:100c9c00b5e7920700d46369a360ede72c0400204c
:0c0cac00b0030020d003002090030020c3
:020000040000fa
:100cb800f7b5150001938a680b6900900c00934200
:100cc80000da130022002b6043321278002a01d088
:100cd80001332b6023689b0602d52b6802332b60f7
:100ce800062723681f4027d0230043331b785a1e4a
:100cf80093412268920630d4220001994332009829
:100d0800089eb047431c25d0062320682a68e1685e
:100d180003400025042b03d18d1aeb43db171d403c
:100d2800a3682269934201dd9b1aed180027bd4292
:100d380020d1002010e00137e3682a689b1abb42e3
:100d4800d2dd22000123193201990098089eb0478c
:100d5800431cf0d101204042febd3020e118433150
:100d6800087021005a1c45310978a2184332023311
:100d78001170c1e7220001231a3201990098089ed8
:0a0d8800b047431ce6d00137d1e765
:020000040000fa
:020d92007047a8
:020000040000fa
:100d9400f8b505000e001400002804d08369002b68
:100da40001d100f0dffb294b9c4234d16c68a3696c
:100db400a360a3891b0738d52369002b35d00c23e6
:100dc400e25e80239b01f7b2f6b21a4236d0236862
:100dd4002269981a6369834205dc2100280000f027
:100de40023fc002827d1a3680130013ba3602368ba
:100df4005a1c22601f706369834204d0a389db07f5
:100e040007d50a2e05d12100280000f00dfc00288a
:100e140011d13000f8bd0e4b9c4201d1ac68c6e73d
:100e24000c4b9c42c3d1ec68c1e721002800fff7ba
:100e3400cbfe0028c3d001267642eae71343a38100
:100e4400226e054b13402366c1e7c046b003002061
:0c0e5400d003002090030020ffdfffff10
:020000040000fa
:100e600010b5284b1b78dbb2012b11d0002b02d020
:100e7000022b19d010bd0024234b1c6000f0eaffa8
:100e8000204b01221a70214b1c70214b1c60f1e792
:100e90001d4b1a681f4b9a42ecd91a4b02221a704a
:100ea000194b00221a60e5e7174b1a681a4b9a4251
:100eb00016d9164b1a78d2b21549086880231b063a
:100ec000d34003430b60114a13780133dbb2137034
:100ed0001378dbb21c2b0ed80b4b00221a60c9e72b
:100ee0000a4b1978c9b20a48036880221206ca4020
:100ef00093430360e7e7094b01221a70032001f0d6
:100f000001f8e9e73f040020240400203d0400200c
:100f10002004002004290000a40600003e04002054
:020000040000fa
:100f2000f8b50323cd1c9d43083506000c2d1fd2b8
:100f30000c25a9421ed8300001f00bf825490a689b
:100f40001400002c1ad1244f3b68002b04d121003f
:100f5000300000f027ff38602900300000f022ff49
:100f6000431c2ad10c2330003360fff72efe03e030
:100f7000002ddeda0c2333600020f8bd23685b1bf4
:100f800018d40b2b03d92360e418256003e06368b1
:100f9000a2420dd10b603000fff717fe20000722a0
:100fa0000b30231d9043c21ae7d01b1aa350e4e76d
:100fb0005360f0e722006468c3e70323c41c9c432a
:100fc000a042e2d0211a300000f0ecfe431cdcd13c
:0c0fd000c8e7c0463004002034040020b4
:020000040000fa
:100fdc000378fe2b00d070474378502b13d0437806
:100fec00d82b2ad04378f82bf5d1254b9b78002ba6
:100ffc003dd0234b00229a70224b802212049a611e
:10100c0052085a61e7e71e4b1b78002b0cd01c4b87
:10101c0000221a701b4b802212059a6152005a61f1
:10102c000378fe2bdbd0d6e7154b01221a70154b3b
:10103c00d2065a6152009a61f2e7114b5b78002b91
:10104c000cd00f4b00225a700e4b802292049a61e6
:10105c0052085a610378fe2bc4d0bce7084b01221e
:10106c005a70084b52065a6152089a61f2e7044bc7
:10107c0001229a70034bd2055a6152089a61aae771
:08108c00400400200044004173
:020000040000fa
:10109400f0b583b01f4b1b78002b06d0012b07d172
:1010a4001d4f1e4b3c33019328e01a4b01221a704a
:1010b40003b0f0bd00f0d8fe032000f021ff184b70
:1010c4001a68520d174c22701b685b0b6370ff2566
:1010d4002b402a40144e0199300000f07dfc134b44
:1010e400187029000140300000f0f2fb2000fff7e7
:1010f40073ff00f01bfd032000f0fafe3b78002b89
:10110400d8d10b4b1a680b4b9a42f7d900f00efd5d
:10111400f4e7c0463c0400203e040020d015000043
:101124002004002044040020700100204304002017
:081134002404002070110100e9
:020000040000fa
:10113c00f7b502268b8905000c00334206d00b0054
:10114c0047330b600b6101234b61f7bd01ab6a4662
:10115c0000f0bafa009907002800fff7dbfe002820
:10116c000ed10c22a35e9a05efd4032293431e43a7
:10117c0023004733236023610123a6816361e4e7e5
:10118c000f4bab628023a28920601343a381009b89
:10119c0020616361019b002b0dd00e23e15e2800c2
:1011ac0000f030fe002806d00322a38993431a00d6
:1011bc0001231343a381a0893843a081c5e7c0460e
:0411cc00151f0000eb
:020000040000fa
:1011d00070b50500002910d00c1f2368002b00da21
:1011e000e418280000f0b5fe1d4a1368002b05d155
:1011f000636014602800fff7e8fc70bda34209d9c2
:10120000216860188342f3d118685b684118216037
:10121000eee713005a68002a01d0a242f9d91968f2
:101220005818a0420bd1206809185818196082423a
:10123000e0d110685268411819605a60dae7a0429c
:1012400002d90c232b60d5e721686018824203d1b4
:10125000106852684118216062605c60cae7c0464d
:041260003004002036
:020000040000fa
:10126400f0b5c6461f4a204b00b50021934203d275
:10127400197001339342fbd10b231c4a9c46083b53
:1012840098461368546819000026214311d01700aa
:1012940091680c3700290fd11a19002c03d01e7045
:1012a40001339342fbd13a00136854681900214377
:1012b400edd104bc9046f0bd6146c91a1d19511800
:1012c400002c05d05a1c505c187013009542f9d1bb
:1012d400434623405a1e9341a4081c19a4003f19f5
:1012e4003a00e1e704000020000000208804000028
:020000040000fa
:1012f40010b51e4a137801210b43137053785bb267
:10130400002bfbdb194980235b018b610023cb613c
:101314000833cb60164b10221a721a7520201a5407
:101324000c3003241c540c301a540c301a540c3056
:101334001a540c301a540c301a540c301a540c3001
:101344001a540c301a540c301a540c301a540c30f1
:101354001a540c301a540b78022213430b700a00ef
:1013640053785bb2002bfbdb10bdc0460018004075
:0413740070020020e3
:020000040000fa
:1013780070b51a4d1a4c2b00220043ca43c343ca06
:1013880043c312881a80174e192333701921280075
:1013980000f09cfa0021144800f0defd00f056fd34
:1013a80000221249032000f05dfc032000f09efd9e
:1013b80023001c332a0013cb13c213cb13c21968a2
:1013c80011601b7913711c2333701c21280000f055
:1013d8007dfa074b00221a7070bdc04670010020cc
:1013e800d015000043040020e11e0000610e00003b
:0413f8003c04002091
:020000040000fa
:1013fc00f8b51c4b07001e68b369002b02d13000f6
:10140c0000f0acf84836b4687368013b04d5336817
:10141c00002b1cd03668f6e70c22a55e002d14d1eb
:10142c002000114b256625606560a560e360256191
:10143c006561a56108222900583000f075fd6563cf
:10144c00a563a564e5642000f8bd6434dde70421e0
:10145c00380000f097fb041e3060dbd10c233b609e
:0c146c00f1e7c046d81f00000100ffffa0
:020000040000fa
:10147800f0b585b001900e00140000f04ffd012872
:101488000bd1731efe2b08d8050002ab1e71002776
:10149800af4212d1300005b0f0bd230032005833fe
:1014a80003a9019800f09cfb0500431cefd14023e1
:1014b800a2891343a3810600ece703abd95da368b7
:1014c800013ba360002b04daa269934207db0a29d7
:1014d80005d023685a1c226019700137d8e722000a
:0c14e8000198fff753fc431cf7d1e4e728
:020000040000fa
:1014f4001a4b1b4a1a60012242215a5401315a5490
:1015040001315a5401315a5403315a5401315a5455
:10151400002202315a5403315a544c394f20195481
:1015240001301954013019540130195451314f38d4
:10153400585403315a5401315a5401315a54013127
:101544005a5402315a5401315a5411322b395a54d3
:1015540001315a54233210399954704700440041e0
:041564000080cf1b19
:020000040000fa
:10156800836913b50400002b28d18364c364036521
:10157800134b144a1b6882620193984201d10123dc
:1015880083612000fff736ff60602000fff732ff1d
:10159800a0602000fff72eff0022e06004216068b1
:1015a80000f070f901220921a06800f06bf902220d
:1015b8001221e06800f066f90123a36113bdc0465b
:0815c800d81f0000151f0000f0
:020000040000fa
:1015d00057686974654c696f6e2053797374656dd3
:1015e00020496e69742e2e2e0a0000005768697417
:1015f000654c696f6e2053797374656d20496e690f
:101600007420446f6e65210a00000000496e765f09
:1016100041646472203a20307825782c20436d6430
:0c162000203a20307825780a0000c046ef
:020000040000fa
:10162c000b6970b505000c00002b01d1002070bdba
:10163c00002804d08369002b01d1fff78fff0b4bdf
:10164c009c4209d16c680c22a35e002beed02100c9
:10165c002800fff79bf8eae7054b9c4201d1ac68e8
:10166c00f1e7044b9c42eed1ec68ece7b0030020b0
:08167c00d003002090030020c0
:020000040000fa
:1016840010b5bff35f8f62b6104bc02189005a5862
:101694001202120ac020000602435a5008221a609d
:1016a400c12292009958ff24a1433f3c2143995001
:1016b40010221a60c32189005a581202120a0243e6
:1016c4005a50802212021a6010bdc04600e100e0a8
:020000040000fa
:1016d40070b50e001d000e23c95e90b014000029e1
:1016e40007da00232b60b3891b0611d48023db00a7
:1016f4000fe001aa00f078fb0028f2dbf022029b45
:1017040012021340054a9b185a4253412b60ede7dd
:1017140040230020236010b070bdc04600e0ffffee
:020000040000fa
:1017240010b5064c2378002b07d1054b002b02d0b3
:10173400044800e000bf0123237010bdf003002023
:101744000000000000000000044b10b5002b03d083
:101754000349044800e000bf10bdc046000000007b
:08176400f40300200000000066
:020000040000fa
:10176c00f0b5c64600b50e4d00240e4f0123984629
:10177c0004e03e6101340c35102c0ed02a7ae3b211
:10178c009a42f7d13b694646a6401e42f2d02b68de
:10179c00002beed068689847ebe704bc9046f0bd90
:0817ac0070020020001800404b
:020000040000fa
:1017b40010b50a4b98470a4b9847fff751fd094b60
:1017c400ff229343084a9360084b9847084b984775
:1017d400084b984700f0b4fbfee7c046cb1e000060
:1017e400cb1e00000000000000ed00e0fd1700002b
:0817f400cb1e0000cb1e00001b
:020000040000fa
:1017fc0070b500260c4d0d4c641ba410a64209d1eb
:10180c000026fef749fc0a4d0a4c641ba410a642a4
:10181c0005d170bdb300eb5898470136eee7b30025
:10182c00eb5898470136f2e7b0000000b00000001a
:08183c00b0000000b400000040
:020000040000fa
:10184400f8b50d00096e06001400d718890418d5e0
:101854009f08bf00d719bc4201d1002008e02a002c
:1018640002cc300000f0e4fa431cf4d101204042e1
:10187400f8bd21782a00300000f0e0f90134431c5f
:08188400f4d0bc42f5d1e8e705
:020000040000fa
:10188c00002310b50400036043608360818103660c
:10189c00c28103614361836119000822583000f052
:1018ac0043fb054b24626362044ba362044be3626b
:1018bc00044b236310bdc046bd1c0000c51a0000bc
:0818cc00bd1b00006d1f0000b0
:020000040000fa
:1018d40030b5002818d0002918d00d4a0124072556
:1018e40004e003881383023000290bd00139937b71
:1018f4002342fcd053682b40012bf2d0037813838e
:101904000130f1e7012030bd0020fce70120fae7b7
:041914000008004285
:020000040000fa
:10191800f7b504000700002601914834002c01d1d6
:101928003000febd6368a5680093009b013b0093ef
:1019380001d52468f2e7ab89012b08d90e22ab5eea
:10194800013304d029003800019b984706436435c9
:02195800ebe7bb
:020000040000fa
:02195a00fee7a6
:020000040000fa
:10195c000e4b01221a801a00937a5bb2002bfbdb30
:10196c000a4b802252001a801a00937a5bb2002b29
:10197c00fbdb064b00229a611a00937a5bb2002bb8
:10198c00fbdb024b01229a807047c04600140040da
:020000040000fa
:10199c000d4b01221a801a00d37b5bb2002bfbdbb0
:1019ac00094b60221a80962212011a833b229a73e9
:1019bc00064a0021116001225a731a00d37b5bb2d4
:1019cc00002bfbdb7047c0460028004218040020a7
:020000040000fa
:1019dc000eb410b500249bb00a4b1daa02ca069384
:1019ec000393094b0190059001a80493199400925c
:1019fc0000f042fa019b1c701bb010bc08bc03b079
:0c1a0c001847c046ffffff7f0802ffffe5
:020000040000fa
:101a180070b50c1e0ed0002a0cd01500022801d972
:101a2800280070bd084b002b06d01100200000e0f4
:101a380000bff5e70025f3e78e1820780134fff79b
:0c1a4800a4f9b442f9d1ebe70000000063
:020000040000fa
:101a54000b4b0c4a1a60d22252425a81c022920283
:101a64005a601a00138a1bb2002bfbdb044a13686a
:101a740002210b431360138a1bb2002bfbdb70475c
:081a84000008004204011040bb
:020000040000fa
:101a8c0010b50c4b06225a60fff72efdfef792ffa5
:101a9c0000f05afa00f014fafff7d6fffff724fc17
:101aac00fff756fffff774fffff760fcfff7e4fd4d
:081abc0010bdc04600400041ce
:020000040000fa
:101ac400f8b51f008b8905000c001600db0505d551
:101ad4000e23c95e0022022300f016f9a389054ae9
:101ae40028001340a38132000e23e15e3b0000f086
:081af400f7f8f8bdffefffff5a
:020000040000fa
:101afc003031323334353637383941424344454638
:101b0c0000303132333435363738396162636465cd
:101b1c006600232d302b2000686c4c0065666745f1
:031b2c0046470029
:020000040000fa
:101b30000023064a1360064a13705370054a137057
:101b4000054a1370054a13607047c0462004002000
:101b5000440400203e0400203f0400202404002010
:020000040000fa
:101b6000084a1368002b09d007491818884202d880
:101b700010601800704701235b42fae7034b1360c3
:101b8000f2e7c0463804002048080020480400203e
:020000040000fa
:101b900070b564254a1e55430e0029007031fff7c9
:101ba000bff9041e08d000212a00016046600c30f5
:0c1bb000a060643200f0bef9200070bd9f
:020000040000fa
:101bbc0070b50c000e25495f00f0a2f8a389421cf9
:101bcc0003d1054a1340a38170bd802252011343f7
:0c1bdc00a3816065f8e7c046ffefffff43
:020000040000fa
:101be8007fb51d00084b0400e0331e682b00002958
:101bf80001d10a0001a9b047431c03d100232b607f
:0c1c08008a33236004b070bd040000208b
:020000040000fa
:101c140070b500290fd0002a0dd01500002808d176
:101c24000c008e18012000f0d1f920700134b44268
:0c1c3400f8d1280070bd0025fbe7c04679
:020000040000fa
:101c4000936810b5013b9360002b04da9469a342ba
:101c500007db0a2905d01368581c106019700800aa
:0a1c600010bdfff797f80100f9e747
:020000040000fa
:021c6a00fee793
:020000040000fa
:101c6c0030b543001b189b00064ce3181b7a8342cb
:101c7c0000d030bd43001d18ad00295160194260e1
:081c8c00f7e7c04670020020da
:020000040000fa
:101c940010b5074a107ac0b2064b1871c1211172ef
:101ca4001b68002b02d0034a9168984710bdc046b8
:081cb400001400400c040020a4
:020000040000fa
:101cbc0070b50c000e25495f00f036f8002803dbe8
:101ccc00636d1b18636570bda389024a1340a38121
:081cdc00f9e7c046ffefffff2e
:020000040000fa
:101ce40070b50500080011000022064c22601a009d
:101cf40000f064f9431c03d12368002b00d02b604f
:081d040070bdc0460000002084
:020000040000fa
:101d0c0070b50500080011000022064c22601a0074
:101d1c0000f048f9431c03d12368002b00d02b6042
:081d2c0070bdc046000000205c
:020000040000fa
:101d340070b50500080011000022064c22601a004c
:101d440000f038f9431c03d12368002b00d02b602a
:081d540070bdc0460000002034
:020000040000fa
:101d5c0010b5064b987bc0b23b229a73044b1b68a0
:101d6c00002b02d0024a5168984710bd002800424f
:041d7c001804002027
:020000040000fa
:101d800082b0002900d101a9101e06d0002b06d078
:101d900013780b601078431e984102b07047022000
:041da0004042fae7dc
:020000040000fa
:101da400002370b5064c050008002360fff7d6fe3b
:101db400431c03d12368002b00d02b6070bdc046a8
:041dc40000000020fb
:020000040000fa
:101dc800002370b5064c05000800236000f0e0f819
:101dd800431c03d12368002b00d02b6070bdc04684
:041de80000000020d7
:020000040000fa
:101dec00002370b5064c050008001100236000f0bc
:101dfc00d1f8431c03d12368002b00d02b6070bd9d
:041e0c0000000020b2
:020000040000fa
:101e1000002370b5064c05000800236000f0c4f8ec
:101e2000431c03d12368002b00d02b6070bdc0463b
:041e3000000000208e
:020000040000fa
:101e340010b50c23d45e80239b011c4204d11c43a7
:0e1e44009481146e23431366fff714fb10bd48
:020000040000fa
:021e5200fee7a9
:020000040000fa
:101e5400044a138802210b431380d37b5bb2002b0b
:081e6400fbdb7047002800427f
:020000040000fa
:101e6c00044a138802218b431380d37b5bb2002b73
:081e7c00fbdb70470028004267
:020000040000fa
:101e840010b513000a00010002480068fef718f9b3
:081e940010bdc0462c04002023
:020000040000fa
:101e9c000b1e04d0ff2a04d98a2303608b3b180045
:081eac0070470a700123fae7f8
:020000040000fa
:101eb400c9b28218904201d10020704703788b4246
:061ec400fbd00130f6e73f
:020000040000fa
:021eca0070475f
:020000040000fa
:101ecc00024b10221a70024a5a60704700040042fa
:041edc0000003602ca
:020000040000fa
:101ee00010b5034a136832331360fff7b3ff10bd18
:041ef00024040020a6
:020000040000fa
:101ef40001238340014ad3607047c0460018004064
:020000040000fa
:101f040001238340014a93607047c0460018004093
:020000040000fa
:101f140010b50249fff7fefc10bdc0462d160000a7
:020000040000fa
:101f24009423024a5b00d05c7047c0460400002042
:020000040000fa
:101f340003001218934200d1704719700133f9e776
:020000040000fa
:0e1f440010b50020fff7a0fd00f020f8fce72c
:020000040000fa
:021f52007047d6
:020000040000fa
:0c1f5400014b86225a607047004000419b
:020000040000fa
:0c1f6000014b1860596070471804002005
:020000040000fa
:0c1f6c0010b50e23c95efff729ff10bd61
:020000040000fa
:0c1f780080239b0100204b607047c04696
:020000040000fa
:0b1f84004300504f53495800002e004e
:020000040000fa
:081f900010b5fff77ff810bd4a
:020000040000fa
:081f980010b500f015f810bdb2
:020000040000fa
:081fa00010b5fff7e9ff10bdc9
:020000040000fa
:081fa80010b500f017f810bda0
:020000040000fa
:081fb00010b500f015f810bd9a
:020000040000fa
:081fb80010b5fff72bfe10bd70
:020000040000fa
:081fc00010b5fff729fd10bd6b
:020000040000fa
:081fc800012040427047c046b1
:020000040000fa
:041fd0000020704736
:020000040000fa
:041fd4007047c0464c
:020000040000fa
:041fd80030030020b2
:020000040000fa
:041fdc000120704729
:020000040000fa
:041fe0000020704726
:020000040000fa
:0200000400807a
:0440000077c700d8a6
:020000040000fa
:0200000400807a
:044004005c01ffff5d
:00000001FF
